{
  "transactions": [
    {
      "hash": "0x05bf5b0ab04fdea804de622163a669d40c27b635774a96d0d9151a7778e85309",
      "transactionType": "CALL",
      "contractName": null,
      "contractAddress": "0x5d61562121d28b772e4f782dc12f61ffcbd861ad",
      "function": "createTemplate(string,bool,string)",
      "arguments": [
        "https://ivory-bitter-gerbil-665.mypinata.cloud/ipfs/bafkreicvitj7mxacivrargz33rpjcqh34vqzqvp6fypgohv2vyciybcbpq",
        "true",
        "Hackathon"
      ],
      "transaction": {
        "from": "0x7ca2331b559ab659ac7a4a7573fadd3dfb91f19c",
        "to": "0x5d61562121d28b772e4f782dc12f61ffcbd861ad",
        "gas": "0x6a44b",
        "value": "0x0",
        "input": "0x07dac8e7000000000000000000000000000000000000000000000000000000000000006000000000000000000000000000000000000000000000000000000000000000010000000000000000000000000000000000000000000000000000000000000100000000000000000000000000000000000000000000000000000000000000006f68747470733a2f2f69766f72792d6269747465722d67657262696c2d3636352e6d7970696e6174612e636c6f75642f697066732f6261666b726569637669746a376d7861636976726172677a333372706a637168333476717a71767036667970676f68763276796369796263627071000000000000000000000000000000000000000000000000000000000000000000000000000000000000000000000000094861636b6174686f6e0000000000000000000000000000000000000000000000",
        "nonce": "0x15c",
        "chainId": "0xaa36a7"
      },
      "additionalContracts": [],
      "isFixedGasLimit": false
    }
  ],
  "receipts": [
    {
      "status": "0x1",
      "cumulativeGasUsed": "0xf11ee3",
      "logs": [
        {
          "address": "0x5d61562121d28b772e4f782dc12f61ffcbd861ad",
          "topics": [
            "0x03fde0809c914c1fd14cb6ad3f5c01886ebc53bf3954b4004eaa8af8f6452a41",
            "0x0000000000000000000000000000000000000000000000000000000000000001",
            "0x0000000000000000000000007ca2331b559ab659ac7a4a7573fadd3dfb91f19c"
          ],
          "data": "0x",
          "blockHash": "0x62c0db9c4d8bff7a003436ea02c87be2ce6b80703a43094af63394b9bf6c3aec",
          "blockNumber": "0x90dc9c",
          "blockTimestamp": "0x68fdf4ec",
          "transactionHash": "0x05bf5b0ab04fdea804de622163a669d40c27b635774a96d0d9151a7778e85309",
          "transactionIndex": "0x5c",
          "logIndex": "0xab",
          "removed": false
        }
      ],
      "logsBloom": "0x00000000000000000000000000000000000000000000000000000000000000000000000000000000000000000000000000002000000000000000004000040800000000000200000000000000000000000000000000040000000000000000000000000000000000000000000000000000000000000000000000000000000000000000008000000000000000000000000000000000000000000000000000000000000000000000000000000000800000000000000000000000000000000000000000000000000000000000000000020400000000000000000000000000000040000000000000000000000000001000000000000000000000000000000000000000",
      "type": "0x2",
      "transactionHash": "0x05bf5b0ab04fdea804de622163a669d40c27b635774a96d0d9151a7778e85309",
      "transactionIndex": "0x5c",
      "blockHash": "0x62c0db9c4d8bff7a003436ea02c87be2ce6b80703a43094af63394b9bf6c3aec",
      "blockNumber": "0x90dc9c",
      "gasUsed": "0x4cefc",
      "effectiveGasPrice": "0xf4244",
      "from": "0x7ca2331b559ab659ac7a4a7573fadd3dfb91f19c",
      "to": "0x5d61562121d28b772e4f782dc12f61ffcbd861ad",
      "contractAddress": null
    }
  ],
  "libraries": [],
  "pending": [],
  "returns": {},
  "timestamp": 1761473774953,
  "chain": 11155111,
  "commit": "9758309"
}